{
  "contractName": "SocialNetwork",
  "abi": [
    {
      "constant": true,
      "inputs": [],
      "name": "myPost",
      "outputs": [
        {
          "name": "id",
          "type": "uint256"
        },
        {
          "name": "content",
          "type": "string"
        },
        {
          "name": "tipAmount",
          "type": "uint256"
        },
        {
          "name": "author",
          "type": "address"
        },
        {
          "name": "publicPost",
          "type": "bool"
        }
      ],
      "payable": false,
      "stateMutability": "view",
      "type": "function",
      "signature": "0x0219146a"
    },
    {
      "constant": true,
      "inputs": [],
      "name": "name",
      "outputs": [
        {
          "name": "",
          "type": "string"
        }
      ],
      "payable": false,
      "stateMutability": "view",
      "type": "function",
      "signature": "0x06fdde03"
    },
    {
      "constant": true,
      "inputs": [
        {
          "name": "",
          "type": "uint256"
        }
      ],
      "name": "posts",
      "outputs": [
        {
          "name": "id",
          "type": "uint256"
        },
        {
          "name": "content",
          "type": "string"
        },
        {
          "name": "tipAmount",
          "type": "uint256"
        },
        {
          "name": "author",
          "type": "address"
        },
        {
          "name": "publicPost",
          "type": "bool"
        }
      ],
      "payable": false,
      "stateMutability": "view",
      "type": "function",
      "signature": "0x0b1e7f83"
    },
    {
      "constant": true,
      "inputs": [],
      "name": "postCount",
      "outputs": [
        {
          "name": "",
          "type": "uint256"
        }
      ],
      "payable": false,
      "stateMutability": "view",
      "type": "function",
      "signature": "0x17906c2e"
    },
    {
      "inputs": [],
      "payable": false,
      "stateMutability": "nonpayable",
      "type": "constructor",
      "signature": "constructor"
    },
    {
      "anonymous": false,
      "inputs": [
        {
          "indexed": false,
          "name": "id",
          "type": "uint256"
        },
        {
          "indexed": false,
          "name": "content",
          "type": "string"
        },
        {
          "indexed": false,
          "name": "tipAmount",
          "type": "uint256"
        },
        {
          "indexed": false,
          "name": "author",
          "type": "address"
        },
        {
          "indexed": false,
          "name": "publicPost",
          "type": "bool"
        }
      ],
      "name": "PostCreated",
      "type": "event",
      "signature": "0xc31012797741d1d347834b0dcdaecfe51fa73c252bcb791779f994ad59f948e9"
    },
    {
      "anonymous": false,
      "inputs": [
        {
          "indexed": false,
          "name": "id",
          "type": "uint256"
        },
        {
          "indexed": false,
          "name": "content",
          "type": "string"
        },
        {
          "indexed": false,
          "name": "tipAmount",
          "type": "uint256"
        },
        {
          "indexed": false,
          "name": "author",
          "type": "address"
        },
        {
          "indexed": false,
          "name": "publicPost",
          "type": "bool"
        }
      ],
      "name": "PostTipped",
      "type": "event",
      "signature": "0xec62b379b10206dadafefa974fbb442fb37ce5d85e48ab232b112f5497b2e2ca"
    },
    {
      "constant": false,
      "inputs": [
        {
          "name": "_content",
          "type": "string"
        },
        {
          "name": "_publicPost",
          "type": "bool"
        }
      ],
      "name": "createPost",
      "outputs": [],
      "payable": false,
      "stateMutability": "nonpayable",
      "type": "function",
      "signature": "0x9ef9fa3a"
    },
    {
      "constant": false,
      "inputs": [
        {
          "name": "_id",
          "type": "uint256"
        }
      ],
      "name": "tipPost",
      "outputs": [],
      "payable": true,
      "stateMutability": "payable",
      "type": "function",
      "signature": "0x74d3c1f8"
    }
  ],
  "bytecode": "0x6080604052600060015534801561001557600080fd5b506040805190810160405280601581526020017f416e67656c7320536f6369616c204e6574776f726b000000000000000000000081525060009080519060200190610061929190610067565b5061010c565b828054600181600116156101000203166002900490600052602060002090601f016020900481019282601f106100a857805160ff19168380011785556100d6565b828001600101855582156100d6579182015b828111156100d55782518255916020019190600101906100ba565b5b5090506100e391906100e7565b5090565b61010991905b808211156101055760008160009055506001016100ed565b5090565b90565b610e0c8061011b6000396000f3fe608060405260043610610078576000357c0100000000000000000000000000000000000000000000000000000000900463ffffffff1680630219146a1461007d57806306fdde03146101595780630b1e7f83146101e957806317906c2e146102e957806374d3c1f8146103145780639ef9fa3a14610342575b600080fd5b34801561008957600080fd5b50610092610416565b60405180868152602001806020018581526020018473ffffffffffffffffffffffffffffffffffffffff1673ffffffffffffffffffffffffffffffffffffffff16815260200183151515158152602001828103825286818151815260200191508051906020019080838360005b8381101561011a5780820151818401526020810190506100ff565b50505050905090810190601f1680156101475780820380516001836020036101000a031916815260200191505b50965050505050505060405180910390f35b34801561016557600080fd5b5061016e6104ff565b6040518080602001828103825283818151815260200191508051906020019080838360005b838110156101ae578082015181840152602081019050610193565b50505050905090810190601f1680156101db5780820380516001836020036101000a031916815260200191505b509250505060405180910390f35b3480156101f557600080fd5b506102226004803603602081101561020c57600080fd5b810190808035906020019092919050505061059d565b60405180868152602001806020018581526020018473ffffffffffffffffffffffffffffffffffffffff1673ffffffffffffffffffffffffffffffffffffffff16815260200183151515158152602001828103825286818151815260200191508051906020019080838360005b838110156102aa57808201518184015260208101905061028f565b50505050905090810190601f1680156102d75780820380516001836020036101000a031916815260200191505b50965050505050505060405180910390f35b3480156102f557600080fd5b506102fe610698565b6040518082815260200191505060405180910390f35b6103406004803603602081101561032a57600080fd5b810190808035906020019092919050505061069e565b005b34801561034e57600080fd5b506104146004803603604081101561036557600080fd5b810190808035906020019064010000000081111561038257600080fd5b82018360208201111561039457600080fd5b803590602001918460018302840111640100000000831117156103b657600080fd5b91908080601f016020809104026020016040519081016040528093929190818152602001838380828437600081840152601f19601f820116905080830192505050505050509192919290803515159060200190929190505050610a82565b005b6003806000015490806001018054600181600116156101000203166002900480601f0160208091040260200160405190810160405280929190818152602001828054600181600116156101000203166002900480156104b65780601f1061048b576101008083540402835291602001916104b6565b820191906000526020600020905b81548152906001019060200180831161049957829003601f168201915b5050505050908060020154908060030160009054906101000a900473ffffffffffffffffffffffffffffffffffffffff16908060030160149054906101000a900460ff16905085565b60008054600181600116156101000203166002900480601f0160208091040260200160405190810160405280929190818152602001828054600181600116156101000203166002900480156105955780601f1061056a57610100808354040283529160200191610595565b820191906000526020600020905b81548152906001019060200180831161057857829003601f168201915b505050505081565b6002602052806000526040600020600091509050806000015490806001018054600181600116156101000203166002900480601f01602080910402602001604051908101604052809291908181526020018280546001816001161561010002031660029004801561064f5780601f106106245761010080835404028352916020019161064f565b820191906000526020600020905b81548152906001019060200180831161063257829003601f168201915b5050505050908060020154908060030160009054906101000a900473ffffffffffffffffffffffffffffffffffffffff16908060030160149054906101000a900460ff16905085565b60015481565b6000811180156106b057506001548111155b1515610724576040517f08c379a00000000000000000000000000000000000000000000000000000000081526004018080602001828103825260148152602001807f54686520706f7374206d7573742065786973742e00000000000000000000000081525060200191505060405180910390fd5b61072c610cf3565b6002600083815260200190815260200160002060a0604051908101604052908160008201548152602001600182018054600181600116156101000203166002900480601f0160208091040260200160405190810160405280929190818152602001828054600181600116156101000203166002900480156107ee5780601f106107c3576101008083540402835291602001916107ee565b820191906000526020600020905b8154815290600101906020018083116107d157829003601f168201915b50505050508152602001600282015481526020016003820160009054906101000a900473ffffffffffffffffffffffffffffffffffffffff1673ffffffffffffffffffffffffffffffffffffffff1673ffffffffffffffffffffffffffffffffffffffff1681526020016003820160149054906101000a900460ff16151515158152505090506000816060015190508073ffffffffffffffffffffffffffffffffffffffff166108fc349081150290604051600060405180830381858888f193505050501580156108c3573d6000803e3d6000fd5b5034826040015101826040018181525050816002600085815260200190815260200160002060008201518160000155602082015181600101908051906020019061090e929190610d3b565b506040820151816002015560608201518160030160006101000a81548173ffffffffffffffffffffffffffffffffffffffff021916908373ffffffffffffffffffffffffffffffffffffffff16021790555060808201518160030160146101000a81548160ff0219169083151502179055509050507fec62b379b10206dadafefa974fbb442fb37ce5d85e48ab232b112f5497b2e2ca6001548360200151846040015184866080015160405180868152602001806020018581526020018473ffffffffffffffffffffffffffffffffffffffff1673ffffffffffffffffffffffffffffffffffffffff16815260200183151515158152602001828103825286818151815260200191508051906020019080838360005b83811015610a3f578082015181840152602081019050610a24565b50505050905090810190601f168015610a6c5780820380516001836020036101000a031916815260200191505b50965050505050505060405180910390a1505050565b60008251111515610afb576040517f08c379a00000000000000000000000000000000000000000000000000000000081526004018080602001828103825260208152602001807f74686520636f6e74656e742073686f756c64206e6f7420626520626c616e6b2e81525060200191505060405180910390fd5b60016000815480929190600101919050555060a0604051908101604052806001548152602001838152602001600081526020013373ffffffffffffffffffffffffffffffffffffffff168152602001821515815250600260006001548152602001908152602001600020600082015181600001556020820151816001019080519060200190610b8b929190610d3b565b506040820151816002015560608201518160030160006101000a81548173ffffffffffffffffffffffffffffffffffffffff021916908373ffffffffffffffffffffffffffffffffffffffff16021790555060808201518160030160146101000a81548160ff0219169083151502179055509050507fc31012797741d1d347834b0dcdaecfe51fa73c252bcb791779f994ad59f948e9600154836000338560405180868152602001806020018581526020018473ffffffffffffffffffffffffffffffffffffffff1673ffffffffffffffffffffffffffffffffffffffff16815260200183151515158152602001828103825286818151815260200191508051906020019080838360005b83811015610cb1578082015181840152602081019050610c96565b50505050905090810190601f168015610cde5780820380516001836020036101000a031916815260200191505b50965050505050505060405180910390a15050565b60a060405190810160405280600081526020016060815260200160008152602001600073ffffffffffffffffffffffffffffffffffffffff1681526020016000151581525090565b828054600181600116156101000203166002900490600052602060002090601f016020900481019282601f10610d7c57805160ff1916838001178555610daa565b82800160010185558215610daa579182015b82811115610da9578251825591602001919060010190610d8e565b5b509050610db79190610dbb565b5090565b610ddd91905b80821115610dd9576000816000905550600101610dc1565b5090565b9056fea165627a7a72305820ae6d587ca8d343957c1457284a9d8b947544d4e31a48a1530a814b5f071119820029",
  "source": "pragma solidity ^0.5.0;\r\n\r\ncontract SocialNetwork {\r\n    string public name;\r\n    uint public postCount = 0;\r\n    mapping(uint => Post) public posts;\r\n    Post public myPost;\r\n\r\n    struct Post {\r\n        uint id;\r\n        string content;\r\n        uint tipAmount;\r\n        address payable author;\r\n        bool publicPost;\r\n    }\r\n\r\n    event PostCreated (\r\n        uint id,\r\n        string content,\r\n        uint tipAmount,\r\n        address author,\r\n        bool publicPost\r\n    );\r\n\r\n    event PostTipped (\r\n        uint id,\r\n        string content,\r\n        uint tipAmount,\r\n        address author,\r\n        bool publicPost\r\n\r\n    );\r\n\r\n\r\n    constructor() public {\r\n        name = 'Angels Social Network';\r\n    }\r\n\r\n    function createPost(string memory _content, bool _publicPost) public {\r\n        require(bytes(_content).length>0,'the content should not be blank.');\r\n        // Increment post count\r\n        postCount ++;\r\n        // Create the post\r\n        posts[postCount] = Post(postCount, _content, 0, msg.sender, _publicPost);\r\n        // Emit post created\r\n        emit PostCreated(postCount, _content, 0, msg.sender, _publicPost);\r\n    }\r\n\r\n    function tipPost(uint _id) public payable {\r\n        require(_id > 0 && _id <= postCount, 'The post must exist.');\r\n        // Fetch the post to tip\r\n        Post memory _post = posts[_id];\r\n        // Fetch the author\r\n        address payable _author = _post.author;\r\n        // Pay the author by sendin them ether\r\n        address(_author).transfer(msg.value);\r\n        // Increment amout of tip\r\n        _post.tipAmount = _post.tipAmount + msg.value;\r\n        // Update the post\r\n        posts[_id] = _post;\r\n        // Trigger an event\r\n        emit PostTipped(postCount, _post.content, _post.tipAmount, _author, _post.publicPost);\r\n    }\r\n}",
  "sourcePath": "C:/Users/Angel/dapp-client/contracts/SocialNetwork.sol",
  "compiler": {
    "name": "solc",
    "version": "0.5.0+commit.1d4f565a.Emscripten.clang"
  },
  "schemaVersion": "3.0.2",
  "updatedAt": "2020-05-24T16:07:41.303Z",
  "devdoc": {
    "methods": {}
  },
  "userdoc": {
    "methods": {}
  }
}