{
  "contractName": "SocialNetwork",
  "abi": [
    {
      "constant": true,
      "inputs": [
        {
          "name": "",
          "type": "address"
        },
        {
          "name": "",
          "type": "uint256"
        }
      ],
      "name": "personalPosts",
      "outputs": [
        {
          "name": "id",
          "type": "uint256"
        },
        {
          "name": "personalId",
          "type": "uint256"
        },
        {
          "name": "content",
          "type": "string"
        },
        {
          "name": "tipAmount",
          "type": "uint256"
        },
        {
          "name": "author",
          "type": "address"
        },
        {
          "name": "publicPost",
          "type": "bool"
        }
      ],
      "payable": false,
      "stateMutability": "view",
      "type": "function",
      "signature": "0x008b9031"
    },
    {
      "constant": true,
      "inputs": [],
      "name": "myPost",
      "outputs": [
        {
          "name": "id",
          "type": "uint256"
        },
        {
          "name": "personalId",
          "type": "uint256"
        },
        {
          "name": "content",
          "type": "string"
        },
        {
          "name": "tipAmount",
          "type": "uint256"
        },
        {
          "name": "author",
          "type": "address"
        },
        {
          "name": "publicPost",
          "type": "bool"
        }
      ],
      "payable": false,
      "stateMutability": "view",
      "type": "function",
      "signature": "0x0219146a"
    },
    {
      "constant": true,
      "inputs": [],
      "name": "name",
      "outputs": [
        {
          "name": "",
          "type": "string"
        }
      ],
      "payable": false,
      "stateMutability": "view",
      "type": "function",
      "signature": "0x06fdde03"
    },
    {
      "constant": true,
      "inputs": [
        {
          "name": "",
          "type": "uint256"
        }
      ],
      "name": "posts",
      "outputs": [
        {
          "name": "id",
          "type": "uint256"
        },
        {
          "name": "personalId",
          "type": "uint256"
        },
        {
          "name": "content",
          "type": "string"
        },
        {
          "name": "tipAmount",
          "type": "uint256"
        },
        {
          "name": "author",
          "type": "address"
        },
        {
          "name": "publicPost",
          "type": "bool"
        }
      ],
      "payable": false,
      "stateMutability": "view",
      "type": "function",
      "signature": "0x0b1e7f83"
    },
    {
      "constant": true,
      "inputs": [],
      "name": "records",
      "outputs": [
        {
          "name": "",
          "type": "uint256"
        }
      ],
      "payable": false,
      "stateMutability": "view",
      "type": "function",
      "signature": "0x95a3be99"
    },
    {
      "constant": true,
      "inputs": [
        {
          "name": "",
          "type": "address"
        }
      ],
      "name": "postPersonalCounter",
      "outputs": [
        {
          "name": "",
          "type": "uint256"
        }
      ],
      "payable": false,
      "stateMutability": "view",
      "type": "function",
      "signature": "0xbc073873"
    },
    {
      "inputs": [],
      "payable": false,
      "stateMutability": "nonpayable",
      "type": "constructor",
      "signature": "constructor"
    },
    {
      "anonymous": false,
      "inputs": [
        {
          "indexed": false,
          "name": "id",
          "type": "uint256"
        },
        {
          "indexed": false,
          "name": "personalId",
          "type": "uint256"
        },
        {
          "indexed": false,
          "name": "content",
          "type": "string"
        },
        {
          "indexed": false,
          "name": "tipAmount",
          "type": "uint256"
        },
        {
          "indexed": false,
          "name": "author",
          "type": "address"
        },
        {
          "indexed": false,
          "name": "publicPost",
          "type": "bool"
        }
      ],
      "name": "PostCreated",
      "type": "event",
      "signature": "0x705ff0467af65c256a9da16f7794e781f962ae83d973f393b9ac9e96dfd7bdae"
    },
    {
      "anonymous": false,
      "inputs": [
        {
          "indexed": false,
          "name": "id",
          "type": "uint256"
        },
        {
          "indexed": false,
          "name": "personalId",
          "type": "uint256"
        },
        {
          "indexed": false,
          "name": "content",
          "type": "string"
        },
        {
          "indexed": false,
          "name": "tipAmount",
          "type": "uint256"
        },
        {
          "indexed": false,
          "name": "author",
          "type": "address"
        },
        {
          "indexed": false,
          "name": "publicPost",
          "type": "bool"
        }
      ],
      "name": "PostTipped",
      "type": "event",
      "signature": "0x7597ccfa39b455b0b6585e0e801d54c2d6b9070f430bb44c971e95f4fa5664b3"
    },
    {
      "constant": false,
      "inputs": [
        {
          "name": "_content",
          "type": "string"
        },
        {
          "name": "_publicPost",
          "type": "bool"
        }
      ],
      "name": "createPost",
      "outputs": [],
      "payable": false,
      "stateMutability": "nonpayable",
      "type": "function",
      "signature": "0x9ef9fa3a"
    },
    {
      "constant": false,
      "inputs": [
        {
          "name": "_id",
          "type": "uint256"
        }
      ],
      "name": "tipPost",
      "outputs": [],
      "payable": true,
      "stateMutability": "payable",
      "type": "function",
      "signature": "0x74d3c1f8"
    }
  ],
  "bytecode": "0x608060405260006001553480156200001657600080fd5b506040805190810160405280601581526020017f416e67656c7320536f6369616c204e6574776f726b000000000000000000000081525060009080519060200190620000649291906200006b565b506200011a565b828054600181600116156101000203166002900490600052602060002090601f016020900481019282601f10620000ae57805160ff1916838001178555620000df565b82800160010185558215620000df579182015b82811115620000de578251825591602001919060010190620000c1565b5b509050620000ee9190620000f2565b5090565b6200011791905b8082111562000113576000816000905550600101620000f9565b5090565b90565b61158a806200012a6000396000f3fe60806040526004361061008d576000357c0100000000000000000000000000000000000000000000000000000000900463ffffffff1680628b9031146100925780630219146a146101b957806306fdde031461029c5780630b1e7f831461032c57806374d3c1f81461043357806395a3be99146104615780639ef9fa3a1461048c578063bc07387314610560575b600080fd5b34801561009e57600080fd5b506100eb600480360360408110156100b557600080fd5b81019080803573ffffffffffffffffffffffffffffffffffffffff169060200190929190803590602001909291905050506105c5565b60405180878152602001868152602001806020018581526020018473ffffffffffffffffffffffffffffffffffffffff1673ffffffffffffffffffffffffffffffffffffffff16815260200183151515158152602001828103825286818151815260200191508051906020019080838360005b8381101561017957808201518184015260208101905061015e565b50505050905090810190601f1680156101a65780820380516001836020036101000a031916815260200191505b5097505050505050505060405180910390f35b3480156101c557600080fd5b506101ce6106d3565b60405180878152602001868152602001806020018581526020018473ffffffffffffffffffffffffffffffffffffffff1673ffffffffffffffffffffffffffffffffffffffff16815260200183151515158152602001828103825286818151815260200191508051906020019080838360005b8381101561025c578082015181840152602081019050610241565b50505050905090810190601f1680156102895780820380516001836020036101000a031916815260200191505b5097505050505050505060405180910390f35b3480156102a857600080fd5b506102b16107c2565b6040518080602001828103825283818151815260200191508051906020019080838360005b838110156102f15780820151818401526020810190506102d6565b50505050905090810190601f16801561031e5780820380516001836020036101000a031916815260200191505b509250505060405180910390f35b34801561033857600080fd5b506103656004803603602081101561034f57600080fd5b8101908080359060200190929190505050610860565b60405180878152602001868152602001806020018581526020018473ffffffffffffffffffffffffffffffffffffffff1673ffffffffffffffffffffffffffffffffffffffff16815260200183151515158152602001828103825286818151815260200191508051906020019080838360005b838110156103f35780820151818401526020810190506103d8565b50505050905090810190601f1680156104205780820380516001836020036101000a031916815260200191505b5097505050505050505060405180910390f35b61045f6004803603602081101561044957600080fd5b8101908080359060200190929190505050610961565b005b34801561046d57600080fd5b50610476610eab565b6040518082815260200191505060405180910390f35b34801561049857600080fd5b5061055e600480360360408110156104af57600080fd5b81019080803590602001906401000000008111156104cc57600080fd5b8201836020820111156104de57600080fd5b8035906020019184600183028401116401000000008311171561050057600080fd5b91908080601f016020809104026020016040519081016040528093929190818152602001838380828437600081840152601f19601f820116905080830192505050505050509192919290803515159060200190929190505050610eb1565b005b34801561056c57600080fd5b506105af6004803603602081101561058357600080fd5b81019080803573ffffffffffffffffffffffffffffffffffffffff1690602001909291905050506113cb565b6040518082815260200191505060405180910390f35b600360205281600052604060002060205280600052604060002060009150915050806000015490806001015490806002018054600181600116156101000203166002900480601f01602080910402602001604051908101604052809291908181526020018280546001816001161561010002031660029004801561068a5780601f1061065f5761010080835404028352916020019161068a565b820191906000526020600020905b81548152906001019060200180831161066d57829003601f168201915b5050505050908060030154908060040160009054906101000a900473ffffffffffffffffffffffffffffffffffffffff16908060040160149054906101000a900460ff16905086565b6004806000015490806001015490806002018054600181600116156101000203166002900480601f0160208091040260200160405190810160405280929190818152602001828054600181600116156101000203166002900480156107795780601f1061074e57610100808354040283529160200191610779565b820191906000526020600020905b81548152906001019060200180831161075c57829003601f168201915b5050505050908060030154908060040160009054906101000a900473ffffffffffffffffffffffffffffffffffffffff16908060040160149054906101000a900460ff16905086565b60008054600181600116156101000203166002900480601f0160208091040260200160405190810160405280929190818152602001828054600181600116156101000203166002900480156108585780601f1061082d57610100808354040283529160200191610858565b820191906000526020600020905b81548152906001019060200180831161083b57829003601f168201915b505050505081565b6002602052806000526040600020600091509050806000015490806001015490806002018054600181600116156101000203166002900480601f0160208091040260200160405190810160405280929190818152602001828054600181600116156101000203166002900480156109185780601f106108ed57610100808354040283529160200191610918565b820191906000526020600020905b8154815290600101906020018083116108fb57829003601f168201915b5050505050908060030154908060040160009054906101000a900473ffffffffffffffffffffffffffffffffffffffff16908060040160149054906101000a900460ff16905086565b60008111801561097357506001548111155b15156109e7576040517f08c379a00000000000000000000000000000000000000000000000000000000081526004018080602001828103825260148152602001807f54686520706f7374206d7573742065786973742e00000000000000000000000081525060200191505060405180910390fd5b6109ef6113e3565b6002600083815260200190815260200160002060c060405190810160405290816000820154815260200160018201548152602001600282018054600181600116156101000203166002900480601f016020809104026020016040519081016040528092919081815260200182805460018160011615610100020316600290048015610abb5780601f10610a9057610100808354040283529160200191610abb565b820191906000526020600020905b815481529060010190602001808311610a9e57829003601f168201915b50505050508152602001600382015481526020016004820160009054906101000a900473ffffffffffffffffffffffffffffffffffffffff1673ffffffffffffffffffffffffffffffffffffffff1673ffffffffffffffffffffffffffffffffffffffff1681526020016004820160149054906101000a900460ff16151515158152505090506000816080015190508073ffffffffffffffffffffffffffffffffffffffff166108fc349081150290604051600060405180830381858888f19350505050158015610b90573d6000803e3d6000fd5b5034826060015101826060018181525050816002600085815260200190815260200160002060008201518160000155602082015181600101556040820151816002019080519060200190610be5929190611432565b506060820151816003015560808201518160040160006101000a81548173ffffffffffffffffffffffffffffffffffffffff021916908373ffffffffffffffffffffffffffffffffffffffff16021790555060a08201518160040160146101000a81548160ff021916908315150217905550905050600260006001548152602001908152602001600020600360003373ffffffffffffffffffffffffffffffffffffffff1673ffffffffffffffffffffffffffffffffffffffff168152602001908152602001600020600084602001518152602001908152602001600020600082015481600001556001820154816001015560028201816002019080546001816001161561010002031660029004610cfe9291906114b2565b50600382015481600301556004820160009054906101000a900473ffffffffffffffffffffffffffffffffffffffff168160040160006101000a81548173ffffffffffffffffffffffffffffffffffffffff021916908373ffffffffffffffffffffffffffffffffffffffff1602179055506004820160149054906101000a900460ff168160040160146101000a81548160ff0219169083151502179055509050507f7597ccfa39b455b0b6585e0e801d54c2d6b9070f430bb44c971e95f4fa5664b3600154836020015184604001518560600151858760a0015160405180878152602001868152602001806020018581526020018473ffffffffffffffffffffffffffffffffffffffff1673ffffffffffffffffffffffffffffffffffffffff16815260200183151515158152602001828103825286818151815260200191508051906020019080838360005b83811015610e67578082015181840152602081019050610e4c565b50505050905090810190601f168015610e945780820380516001836020036101000a031916815260200191505b5097505050505050505060405180910390a1505050565b60015481565b60008251111515610f2a576040517f08c379a00000000000000000000000000000000000000000000000000000000081526004018080602001828103825260208152602001807f74686520636f6e74656e742073686f756c64206e6f7420626520626c616e6b2e81525060200191505060405180910390fd5b6001600081548092919060010191905055506001600960003373ffffffffffffffffffffffffffffffffffffffff1673ffffffffffffffffffffffffffffffffffffffff1681526020019081526020016000205401600960003373ffffffffffffffffffffffffffffffffffffffff1673ffffffffffffffffffffffffffffffffffffffff16815260200190815260200160002081905550610fca6113e3565b60c0604051908101604052806001548152602001600960003373ffffffffffffffffffffffffffffffffffffffff1673ffffffffffffffffffffffffffffffffffffffff168152602001908152602001600020548152602001848152602001600081526020013373ffffffffffffffffffffffffffffffffffffffff1681526020018315158152509050806002600060015481526020019081526020016000206000820151816000015560208201518160010155604082015181600201908051906020019061109a929190611432565b506060820151816003015560808201518160040160006101000a81548173ffffffffffffffffffffffffffffffffffffffff021916908373ffffffffffffffffffffffffffffffffffffffff16021790555060a08201518160040160146101000a81548160ff021916908315150217905550905050600260006001548152602001908152602001600020600360003373ffffffffffffffffffffffffffffffffffffffff1673ffffffffffffffffffffffffffffffffffffffff1681526020019081526020016000206000600960003373ffffffffffffffffffffffffffffffffffffffff1673ffffffffffffffffffffffffffffffffffffffff1681526020019081526020016000205481526020019081526020016000206000820154816000015560018201548160010155600282018160020190805460018160011615610100020316600290046111ee9291906114b2565b50600382015481600301556004820160009054906101000a900473ffffffffffffffffffffffffffffffffffffffff168160040160006101000a81548173ffffffffffffffffffffffffffffffffffffffff021916908373ffffffffffffffffffffffffffffffffffffffff1602179055506004820160149054906101000a900460ff168160040160146101000a81548160ff0219169083151502179055509050507f705ff0467af65c256a9da16f7794e781f962ae83d973f393b9ac9e96dfd7bdae600154600960003373ffffffffffffffffffffffffffffffffffffffff1673ffffffffffffffffffffffffffffffffffffffff16815260200190815260200160002054856000338760405180878152602001868152602001806020018581526020018473ffffffffffffffffffffffffffffffffffffffff1673ffffffffffffffffffffffffffffffffffffffff16815260200183151515158152602001828103825286818151815260200191508051906020019080838360005b8381101561138757808201518184015260208101905061136c565b50505050905090810190601f1680156113b45780820380516001836020036101000a031916815260200191505b5097505050505050505060405180910390a1505050565b60096020528060005260406000206000915090505481565b60c06040519081016040528060008152602001600081526020016060815260200160008152602001600073ffffffffffffffffffffffffffffffffffffffff1681526020016000151581525090565b828054600181600116156101000203166002900490600052602060002090601f016020900481019282601f1061147357805160ff19168380011785556114a1565b828001600101855582156114a1579182015b828111156114a0578251825591602001919060010190611485565b5b5090506114ae9190611539565b5090565b828054600181600116156101000203166002900490600052602060002090601f016020900481019282601f106114eb5780548555611528565b8280016001018555821561152857600052602060002091601f016020900482015b8281111561152757825482559160010191906001019061150c565b5b5090506115359190611539565b5090565b61155b91905b8082111561155757600081600090555060010161153f565b5090565b9056fea165627a7a723058209e48df1623a8c66189c931399589704cbb0db12236f5b948afca3b25e038b13f0029",
  "source": "pragma solidity ^0.5.0;\r\n\r\ncontract SocialNetwork {\r\n    string public name;\r\n    uint public records = 0;\r\n    mapping(uint => Post) public posts;\r\n    mapping(address => mapping(uint => Post)) public personalPosts;\r\n    Post public myPost;\r\n    mapping(address => uint) public postPersonalCounter;\r\n\r\n    struct Post {\r\n        uint id;\r\n        uint personalId;\r\n        string content;\r\n        uint tipAmount;\r\n        address payable author;\r\n        bool publicPost;\r\n    }\r\n\r\n    event PostCreated (\r\n        uint id,\r\n        uint personalId,\r\n        string content,\r\n        uint tipAmount,\r\n        address author,\r\n        bool publicPost\r\n    );\r\n\r\n    event PostTipped (\r\n        uint id,\r\n        uint personalId,\r\n        string content,\r\n        uint tipAmount,\r\n        address author,\r\n        bool publicPost\r\n\r\n    );\r\n\r\n    constructor() public {\r\n        name = 'Angels Social Network';\r\n    }\r\n\r\n    function createPost(string memory _content, bool _publicPost) public {\r\n        require(bytes(_content).length>0,'the content should not be blank.');\r\n        // Increment post count\r\n        records ++;\r\n        // Increment personal counters\r\n        postPersonalCounter[msg.sender] = postPersonalCounter[msg.sender] + 1;\r\n        // Create the post\r\n        Post memory _post = Post(records, postPersonalCounter[msg.sender], _content, 0, msg.sender, _publicPost);\r\n        posts[records] = _post;\r\n        // Create the post for each author\r\n        personalPosts[msg.sender][postPersonalCounter[msg.sender]] = posts[records];\r\n        // Emit post created\r\n        emit PostCreated(records, postPersonalCounter[msg.sender], _content, 0, msg.sender, _publicPost);\r\n    }\r\n\r\n    function tipPost(uint _id) public payable {\r\n        require(_id > 0 && _id <= records, 'The post must exist.');\r\n        // Fetch the post to tip\r\n        Post memory _post = posts[_id];\r\n        // Fetch the author\r\n        address payable _author = _post.author;\r\n        // Pay the author by sendin them ether\r\n        address(_author).transfer(msg.value);\r\n        // Increment amout of tip\r\n        _post.tipAmount = _post.tipAmount + msg.value;\r\n        // Update the post for public and each author\r\n        posts[_id] = _post;\r\n        personalPosts[msg.sender][_post.personalId] = posts[records];\r\n        // Trigger an event\r\n        emit PostTipped(records, _post.personalId, _post.content, _post.tipAmount, _author, _post.publicPost);\r\n    }\r\n}",
  "sourcePath": "C:/Users/Angel/dapp-client/contracts/SocialNetwork.sol",
  "compiler": {
    "name": "solc",
    "version": "0.5.0+commit.1d4f565a.Emscripten.clang"
  },
  "schemaVersion": "3.0.2",
  "updatedAt": "2020-05-25T20:25:32.105Z",
  "devdoc": {
    "methods": {}
  },
  "userdoc": {
    "methods": {}
  }
}